{
	"data": {
		"bytecode": {
			"linkReferences": {},
			"object": "608060405234801561001057600080fd5b5060c98061001f6000396000f3fe60806040526004361060265760003560e01c806357771dfa14602b578063c71daccb146033575b600080fd5b60316059565b005b348015603e57600080fd5b506045605b565b604051605091906070565b60405180910390f35b565b600047905090565b606a816089565b82525050565b6000602082019050608360008301846063565b92915050565b600081905091905056fea2646970667358221220cdd68489585f3c063299332ea1d607b56aa94c411172abe8c741d9305877e33f64736f6c63430008000033",
			"opcodes": "PUSH1 0x80 PUSH1 0x40 MSTORE CALLVALUE DUP1 ISZERO PUSH2 0x10 JUMPI PUSH1 0x0 DUP1 REVERT JUMPDEST POP PUSH1 0xC9 DUP1 PUSH2 0x1F PUSH1 0x0 CODECOPY PUSH1 0x0 RETURN INVALID PUSH1 0x80 PUSH1 0x40 MSTORE PUSH1 0x4 CALLDATASIZE LT PUSH1 0x26 JUMPI PUSH1 0x0 CALLDATALOAD PUSH1 0xE0 SHR DUP1 PUSH4 0x57771DFA EQ PUSH1 0x2B JUMPI DUP1 PUSH4 0xC71DACCB EQ PUSH1 0x33 JUMPI JUMPDEST PUSH1 0x0 DUP1 REVERT JUMPDEST PUSH1 0x31 PUSH1 0x59 JUMP JUMPDEST STOP JUMPDEST CALLVALUE DUP1 ISZERO PUSH1 0x3E JUMPI PUSH1 0x0 DUP1 REVERT JUMPDEST POP PUSH1 0x45 PUSH1 0x5B JUMP JUMPDEST PUSH1 0x40 MLOAD PUSH1 0x50 SWAP2 SWAP1 PUSH1 0x70 JUMP JUMPDEST PUSH1 0x40 MLOAD DUP1 SWAP2 SUB SWAP1 RETURN JUMPDEST JUMP JUMPDEST PUSH1 0x0 SELFBALANCE SWAP1 POP SWAP1 JUMP JUMPDEST PUSH1 0x6A DUP2 PUSH1 0x89 JUMP JUMPDEST DUP3 MSTORE POP POP JUMP JUMPDEST PUSH1 0x0 PUSH1 0x20 DUP3 ADD SWAP1 POP PUSH1 0x83 PUSH1 0x0 DUP4 ADD DUP5 PUSH1 0x63 JUMP JUMPDEST SWAP3 SWAP2 POP POP JUMP JUMPDEST PUSH1 0x0 DUP2 SWAP1 POP SWAP2 SWAP1 POP JUMP INVALID LOG2 PUSH5 0x6970667358 0x22 SLT KECCAK256 0xCD 0xD6 DUP5 DUP10 PC 0x5F EXTCODECOPY MOD ORIGIN SWAP10 CALLER 0x2E LOG1 0xD6 SMOD 0xB5 PUSH11 0xA94C411172ABE8C741D930 PC PUSH24 0xE33F64736F6C634300080000330000000000000000000000 "
		},
		"gasEstimates": {
			"creation": {
				"codeDepositCost": "40200",
				"executionCost": "93",
				"totalCost": "40293"
			},
			"external": {
				"Paynow()": "98",
				"checkBalance()": "339"
			}
		},
		"methodIdentifiers": {
			"Paynow()": "57771dfa",
			"checkBalance()": "c71daccb"
		}
	},
	"abi": [
		{
			"inputs": [],
			"name": "Paynow",
			"outputs": [],
			"stateMutability": "payable",
			"type": "function"
		},
		{
			"inputs": [],
			"name": "checkBalance",
			"outputs": [
				{
					"internalType": "uint256",
					"name": "",
					"type": "uint256"
				}
			],
			"stateMutability": "view",
			"type": "function"
		}
	]
}